:100000000C94B0000C94DA000C94DA000C94DA0032
:100010000C94DA000C94DA000C94DA000C94DA00F8
:100020000C94DA000C94DA000C94DA000C94DA00E8
:100030000C94DA000C94DA000C94DA000C94DA00D8
:100040000C94750E0C94DA000C94DA000C94DA001F
:100050000C94DA000C94DA000C94DA000C94DA00B8
:100060000C94DA000C94DA000C94DA000C94DA00A8
:100070000C94DA000C94DA000C94DA000C94DA0098
:100080000C94DA000C94180B0C94DA000000000AAF
:100090000B0C000000000000010405060000000039
:1000A0000000000000000000000000000000000050
:1000B0000000000000000000000000000000000040
:1000C00000010204081020408001020408102040B2
:1000D000800810010204081020408001020102047F
:1000E0000810204080048040201008040201010212
:1000F00004081020408005050505050505050202D8
:1001000002020202020207070404040404040404B5
:1001100007070303030303030303070101010101AD
:10012000010101060606060606060600003900362D
:10013000003300300021002000630000003B003845
:10014000003500320023006200650000003A0037ED
:100150000034003100220061006400003306690AA7
:1001600011241FBECFEFD0E1DEBFCDBF11E0A0E074
:10017000B1E0EEECF5E200E00BBF02C007900D929B
:10018000A235B107D9F722E0A2E5B1E001C01D9286
:10019000AE3DB207E1F710E0C0EBD0E004C021971C
:1001A000FE010E94AE12CE3AD107C9F70E94261076
:1001B0000C94E5120C9400001092E4011092E301FB
:1001C0008091E3019091E401883091059CF4880FBF
:1001D000991FFC01E95EFE4F61E080810E948F0F54
:1001E0008091E3019091E40101969093E401809362
:1001F000E301E6CF08951092E4011092E3018091AB
:10020000E3019091E401883091059CF4880F991FD7
:10021000FC01E95EFE4F60E080810E948F0F8091BB
:10022000E3019091E40101969093E4018093E3014E
:10023000E6CF08950F931F93CF93DF93082FC62F18
:100240000E94DC0060E08BE20E94CB0F61E084E35F
:100250000E94CB0F61E08CE20E94CB0F61E08AE24A
:100260000E94CB0F1092E4011092E30110E0209164
:10027000E3013091E40128303105DCF4B801022EAD
:1002800002C0759567950A94E2F76170220F331FDB
:10029000F901E95EFE4F80810E94CB0F2091E301BE
:1002A0003091E4012F5F3F4F3093E4012093E3014D
:1002B000DECF60E084E30E94CB0F60E08AE20E9420
:1002C000CB0F1092E4011092E301D0E08091E301A2
:1002D0009091E40188309105D4F4BE01082E02C04B
:1002E000759567950A94E2F76170880F991FFC0174
:1002F000E95EFE4F80810E94CB0F8091E3019091D7
:10030000E40101969093E4018093E301DFCF61E083
:100310008AE20E94CB0F61E084E30E94CB0F61E090
:100320008BE2DF91CF911F910F910C94CB0F0F9324
:100330001F93CF93DF93C82F0E94DC0060E08BE215
:100340000E94CB0F61E084E30E94CB0F61E08CE25E
:100350000E94CB0F61E08AE20E94CB0F1092E40171
:100360001092E301D0E02091E3013091E4012830C4
:100370003105DCF4BE01022E02C0759567950A9422
:10038000E2F76170220F331FF901E95EFE4F8081B1
:100390000E94CB0F2091E3013091E4012F5F3F4F8A
:1003A0003093E4012093E301DECF60E084E30E9418
:1003B000CB0F60E08CE20E94CB0F0E94FB001092FA
:1003C000E4011092E3018091E3019091E40188300F
:1003D00091059CF4880F991FFC01E95EFE4F61E0D6
:1003E00080810E94CB0F8091E3019091E4010196FE
:1003F0009093E4018093E301E6CF8CE10E94F90F32
:10040000182F8DE10E94F90FEC018EE10E94F90F87
:10041000CC0FDD1F880F991F880F991FC82BC12B88
:100420008FE10E94F90F43E0880F991F4A95E1F789
:10043000C82B80E20E94F90F54E0880F991F5A954B
:10044000E1F7C82B81E20E94F90F65E0880F991F40
:100450006A95E1F7C82B82E20E94F90F76E0880FD7
:10046000991F7A95E1F7C82B83E20E94F90F8C015E
:1004700061E08CE20E94CB0F61E084E30E94CB0F2D
:1004800061E08BE20E94CB0FC8019695982F8827D8
:10049000979587958C2BDF91CF911F910F910895A0
:1004A0006091E20180EE0E941A016091E10181EE0B
:1004B0000C941A016091E00182EE0E941A01609191
:1004C000DF0183EE0C941A018091ED019091EE0111
:1004D00081309105B1F082309105C9F0892B09F581
:1004E00061E08DE20E94CB0F60E08EE20E94CB0FB4
:1004F00060E08FE20E94CB0F6091ED0184EE0C94DE
:100500001A0160E08DE20E94CB0F61E0EECF60E067
:100510008DE20E94CB0F60E08EE20E94CB0F61E083
:10052000E8CF08958091EB019091EC01009719F0CC
:10053000019751F0089560E081E30E94CB0F609134
:10054000EB0185EE0C941A0161E0F6CF8091E90190
:100550009091EA01009719F0019751F0089560E039
:1005600082E30E94CB0F6091E90186EE0C941A01A0
:1005700061E0F6CF8091E7019091E801009719F0D2
:10058000019751F0089560E080E30E94CB0F6091E5
:10059000E70187EE0C941A0161E0F6CFCF93DF9369
:1005A00060E085E20E948F0F61E089E10E948F0F79
:1005B00061E08DE20E948F0F61E08EE20E948F0F5A
:1005C00061E08FE20E948F0F61E081E30E948F0F54
:1005D00061E082E30E948F0F61E080E30E948F0F51
:1005E00061E08BE20E948F0F61E084E30E948F0F35
:1005F00061E08AE20E948F0F61E08CE20E948F0F1F
:1006000061E083E30E948F0F80EE0E949701C82F64
:1006100081EE0E949701682F8C2F0E9422109093E8
:10062000E2018093E10182EE0E949701C82F83EEE0
:100630000E949701682F8C2F0E9422109093E00156
:100640008093DF0184EE0E94970190E09093EE0189
:100650008093ED0185EE0E94970190E09093EC016C
:100660008093EB0186EE0E94970190E09093EA015F
:100670008093E90187EE0E94970190E09093E80152
:100680008093E70160E08FEE0E941A010E946402ED
:100690000E9492020E94A6020E94BA0261E089E1D1
:1006A0000E94CB0F68E270E080E090E00E94F10EC3
:1006B00060E089E10E94CB0F6AE070E080E090E0AA
:1006C0000E94F10E85E192E00E943F0A60E783E01C
:1006D00092E00E94550E61E781EF91E00E94550E75
:1006E0002AE030E048E35BE561E070E083E092E01F
:1006F0000E94F10D2AE030E048E35BE561E070E044
:1007000081EF91E00E94F10D83E092E00E94FA0DEA
:1007100081EF91E00E94FA0D61E083E092E00E9497
:100720003C0E61E081EF91E00E943C0E60E273E0DC
:1007300080E090E00E94F10E60E083E092E00E9491
:100740003C0E60E081EF91E00E943C0E64E670E0B8
:1007500080E090E00E94F10E6091E1017091E20171
:100760004AE050E083E092E00E94F30D83E092E0E3
:100770000E94FA0D4AE050E070E060E081EF91E005
:100780000E94F30D81EF91E00E94FA0D8091DF014C
:100790009091E00168EE73E00E947812CB01CAE00C
:1007A000D0E0BE010E94781221E0482F61E081EF85
:1007B00091E00E94460C8091DF019091E00164E697
:1007C00070E00E947812CB01BE010E94781220E0F6
:1007D000482F62E081EF91E00E94460C81EF91E0AA
:1007E000DF91CF910C94FA0DCF93DF93EC018A81C6
:1007F0000E94F90F998788876C817D81072E000CF4
:10080000880B990B0E94F10E88859985892B91F4AC
:1008100081E090E09F838E8361E088810E94CB0F0E
:100820006C817D81072E000C880B990BDF91CF9195
:100830000C94F10EDF91CF910895CF93DF93EC01EB
:100840008A810E94F90F998788876C817D81072EA4
:10085000000C880B990B0E94F10E888599850197F1
:1008600081F41F821E8260E088810E94CB0F6C8120
:100870007D81072E000C880B990BDF91CF910C9492
:10088000F10EDF91CF9108958091E9019091EA01F5
:10089000019761F486E691E00E941D0482E591E0F3
:1008A0000E941D048CE591E00C94F40386E691E02F
:1008B0000E941D048CE591E00E941D0482E591E0F8
:1008C000F3CF8091ED019091EE018130910521F0FF
:1008D000029709F445C008950E9444048091E901FB
:1008E0009091EA01892B29F586E691E00E94F403B4
:1008F00082E591E00E941D048CE591E00E94F403E2
:1009000086E691E00E941D048CE591E00E941D04A2
:1009100082E591E00E94F4038091E1019091E2016F
:1009200001969093E2018093E10160E08FEE0C94D8
:100930001A0186E691E00E94F4038CE591E00E94A2
:100940001D0482E591E00E94F40386E691E00E9496
:100950001D0482E591E00E941D048CE591E0DACF50
:100960000E9444048091E9019091EA01892B11F5DC
:1009700086E691E00E94F40382E591E00E941D0466
:100980008CE591E00E94F40386E691E00E941D044C
:100990008CE591E00E941D0482E591E00E94F40341
:1009A0008091E1019091E20101969093E2018093A0
:1009B000E101089586E691E00E94F4038CE591E060
:1009C0000E941D0482E591E00E94F40386E691E016
:1009D0000E941D0482E591E00E941D048CE591E0D7
:1009E000DDCFCF93DF936091E1017091E2014AE0A6
:1009F00050E083E092E00E94F30D83E092E00E94D9
:100A0000FA0D85E20E94F90F9093F0018093EF01B7
:100A1000019741F48FEE0E94970190E09093E601D8
:100A20008093E5018091E5019091E601019789F4B9
:100A30000E9464020E9492020E94A6020E94BA02D0
:100A40008091ED019091EE01892B09F458C00E942C
:100A5000610480E791E00E949809C82F882351F132
:100A600061E089E10E94CB0F68E270E080E090E0F5
:100A70000E94F10E60E089E10E94CB0F6AE070E015
:100A800080E090E00E94F10E80EE0E949701D82F46
:100A900081EE0E949701682F8D2F0E9422100196EF
:100AA0009093E2018093E1016AE070E080E090E0E1
:100AB0000E94F10E0E945002EFECEC0FE73108F0BB
:100AC000CFC00E2E000CFF0BE859FA4F0C94AE125B
:100AD000820593059C05A405AB05DE051F063006BF
:100AE0003006300630063006300630063006300656
:100AF0008C0596053006AE05BE05CE052C060E9477
:100B00004404A7CF82E591E00E941D048CE591E0AA
:100B1000DF91CF910C94F4038CE591E00E941D04C9
:100B200082E591E0F5CF86E691E0F2CF86E691E0AE
:100B3000DF91CF910C941D041092EE011092ED0103
:100B4000DF91CF910C94640281E090E09093EE01EC
:100B50008093ED01F5CF82E090E0F8CF2091EB019A
:100B60003091EC0181E090E0821B930B9093EC01BB
:100B70008093EB01DF91CF910C9492022091E901D7
:100B80003091EA0181E090E0821B930B9093EA019F
:100B90008093E901DF91CF910C94A6022091E701A7
:100BA0003091E80181E090E0821B930B9093E80183
:100BB0008093E701DF91CF910C94BA028091DF011D
:100BC0009091E0018C599F4F81322EE49207A4F559
:100BD0009093E0018093DF010E945A028091DF012F
:100BE0009091E00168EE73E00E947812CB01CAE0B8
:100BF000D0E0BE010E94781221E0482F61E081EF31
:100C000091E00E94460C8091DF019091E00164E642
:100C100070E00E947812CB01BE010E94781220E0A1
:100C2000482F62E081EF91E00E94460C81EF91E055
:100C3000DF91CF910C94FA0D80E29EE4C9CF8091B0
:100C4000DF019091E00184569109843691050CF002
:100C5000BFCF83E690E0BCCF1092E2011092E10199
:100C6000DF91CF910895EF920F931F93CF93DF936E
:100C700083E092E00E94430C81EF91E00E94430CDC
:100C800082E0E82E07E020E031E042E051E069E058
:100C900071E080E791E00E949C06C6E6D1E084E125
:100CA00090E09983888361E00E948F0F86E290E054
:100CB0009B838A8360E00E948F0F0AE010E01D830F
:100CC0000C83CCE5D1E085E190E09983888361E0F5
:100CD0000E948F0F87E290E09B838A8360E00E94EE
:100CE0008F0F1D830C83C2E5D1E086E190E09983EC
:100CF000888361E00E948F0F88E290E09B838A8363
:100D000060E00E948F0F1D830C83DF91CF911F91B4
:100D10000F91EF900895FC011082148213821582C6
:100D20000895862F0C94F90F862F642F0C94CB0F07
:100D3000862F642F0C948F0F4F925F926F927F9249
:100D40008F929F92AF92BF92CF92DF92EF920F93CA
:100D5000CF93DF93EC016B014A01590102960E9487
:100D60008B068BE291E0998388832E018CE1480EFB
:100D7000511C32018CE3680E711CC2010E948B066B
:100D800086E0480E511C64147504B9F7FE01EE5953
:100D9000FF4F918280823296B182A0823296008388
:100DA0003196E0823797D182C08238968AE090E00F
:100DB00091838083329684EF91E091838083339690
:100DC0001182108271971082118212821382C4598B
:100DD000DF4F1882DF91CF910F91EF90DF90CF908E
:100DE000BF90AF909F908F907F906F905F904F904B
:100DF00008952F923F924F925F926F927F928F92BF
:100E00009F92AF92BF92CF92DF92EF92FF920F9399
:100E10001F93CF93DF93CDB7DEB728970FB6F89423
:100E2000DEBF0FBECDBF98878F8310E05C0126E642
:100E3000A20EB11C7C0132E6E30EF11CD5018C91AF
:100E40001817A0F4F701A081B181A10FB11DEF81A6
:100E5000F88580819181FC012081318142E06C9193
:100E60008F819885F90109951F5FE8CF312C2F817B
:100E7000388529593F4F3C832B83CF80D88434E673
:100E8000C30ED11C412C512C320143948F81988583
:100E90008E599F4F9E838D83AB81BC818C91381678
:100EA00008F087C0E32CF12CF601A081B181AE0DD2
:100EB000BF1DEF81F88580819181FC012081318106
:100EC00041E06C918F819885F9010995F601A08127
:100ED000B181AE0DBF1DEF81F88580819181FC014C
:100EE0002281338140E06C918F819885F9010995C9
:100EF000D301C201032C04C0880F991FAA1FBB1F76
:100F00000A94D2F79A8389834C0180949094212C7F
:100F1000AF81B885ED91FC91D5018C91281638F5FB
:100F2000022D10E0AD81BE818D919C91DC01A00F5E
:100F3000B11F0480F581E02D6C918F819885099512
:100F4000000F111FEF81F885E00FF11F892B51F47D
:100F50008085918529813A81822B932B9187808787
:100F60002394D6CF8085918588219921F7CFD6010A
:100F70008D919C91DC01AE0DBF1D0280F381E02DAF
:100F800041E06C918F8198850995F601808191816E
:100F9000E80EF91EAF81B885ED91FC910190F081CA
:100FA000E02D40E0D7016C918F81988509953394AD
:100FB00073CF28960FB6F894DEBF0FBECDBFDF917A
:100FC000CF911F910F91FF90EF90DF90CF90BF9046
:100FD000AF909F908F907F906F905F904F903F90D9
:100FE0002F900895FC0190E080E0258D368D261726
:100FF000370739F0019636968A309105B1F78FEFB1
:101000009FEF0895CF93DF93DC0126E0629FA00D50
:10101000B11D112490965C934E935F9721E09196B9
:101020002C939197FC01E359FF4F0190F081E02D43
:10103000EC01C459DF4F2881222341F0309719F089
:10104000DC01662329F0DF91CF9108953097D9F321
:101050005C968C91DF91CF910994CF92DF92EF92C1
:10106000FF920F931F93CF93DF93EC01162F042F62
:10107000FC0186E0689FE00DF11D112411A2878D0F
:1010800090A18130910509F180F08230910509F439
:1010900043C0039709F445C0DF91CF911F910F9191
:1010A000FF90EF90DF90CF9008954423A9F341E0A3
:1010B00050E0CE010E9402080E94BF0EC85ADF4FC6
:1010C000688379838A839B83E7CF0E94BF0EFE01EA
:1010D000E85AFF4FC080D180E280F380AB01BC01B1
:1010E0004C195D096E097F09729680819181B0E08B
:1010F000A0E084179507A607B70770F442E050E018
:10110000612FCE01DF91CF911F910F91FF90EF9052
:10111000DF90CF900C94020843E050E00111BCCF67
:10112000EFCF50E040E0ECCF2F923F924F925F9292
:101130006F927F928F929F92AF92BF92CF92DF92E7
:10114000EF92FF920F931F93CF93DF9300D000D0C5
:10115000CDB7DEB79C838B835C01CC9685012FEFE6
:101160003FEFD8015F964D915C919097452B49F4E4
:101170005C961C925C975E963C932E935D9791963D
:101180001C920A5F1F4F0817190759F7312CEB8182
:10119000FC81EA59FF4FFA83E9834B805C80F7E6D4
:1011A0004F0E511C6B807C8020E6620E711CA98161
:1011B000BA818C91381608F05BC0212CE32CF12CFD
:1011C000B4E0EB0EF11CEE0CFF1CEB81FC81EE0E8B
:1011D000FF1ED2018C90281408F048C0F701C0808F
:1011E000D180022C02C0D694C7940A94E2F7389CAE
:1011F00040011124820C911CB4018B819C810E94BE
:10120000F20797FD09C04C2D4170682F8B819C819E
:101210000E942D082394DDCF0196E1F7C0FEFACF9E
:10122000EB81FC8170E060E0848D811118C0D301F6
:10123000ED91FC91E80DF91D8081B6E0B69FF001BB
:10124000B79FF00D11242B813C81E20FF31F848F97
:10125000968E858E10A2178E41E0C901D9CF6F5F9F
:101260007F4F36966A307105F9F6D4CF33949FCF0D
:1012700080E0D50191969C919111892FB6E0AB0E3B
:10128000B11C0A151B05A9F70F900F900F900F9036
:10129000DF91CF911F910F91FF90EF90DF90CF9052
:1012A000BF90AF909F908F907F906F905F904F9086
:1012B0003F902F900895CF92DF92EF92FF920F937D
:1012C0001F93CF93DF93EC010E94BF0E8E01045A4F
:1012D0001F4FF801C080D180E280F380AB01BC01D8
:1012E0004C195D096E097F093C9680819181B0E0BF
:1012F000A0E084179507A607B707C0F4CE010E94A7
:10130000F906CE010E949408C82F0E94BF0EF80172
:1013100060837183828393838C2FDF91CF911F91A0
:101320000F91FF90EF90DF90CF900895C0E0F4CF41
:101330000F931F93CF93DF93EC018C0104591F4F40
:1013400081E0F8018083CE010E945B09882369F067
:1013500089A1882351F08F8D98A1019731F48C8D4C
:10136000DF91CF911F910F910895F801108280E0D5
:10137000F7CF8091450290914602891B990B089501
:1013800090914602809145022FEF3FEF981748F465
:10139000E92FF0E0E95BFD4F208130E09F5F909303
:1013A0004602C9010895E091460280914502E8177E
:1013B00030F4F0E0E95BFD4F808190E008958FEF1D
:1013C0009FEF08950895CF93DF931F92CDB7DEB7B7
:1013D0006983209121022223F9F0209122022032F8
:1013E00058F021E030E0FC013383228390E080E07C
:1013F0000F90DF91CF91089580912302E82FF0E0C4
:10140000EC5DFD4F998190838F5F809323028093E1
:10141000220281E090E0ECCF61E0CE0101960E94D3
:10142000EF0AF7CFCF92DF92EF92FF920F931F93C5
:10143000CF93DF937C01CB018A01209121022223EB
:1014400089F0EB016B01C40ED51ECC15DD0569F0EA
:101450006991D701ED91FC910190F081E02DC701D8
:101460000995F3CF642F0E94EF0AC801DF91CF9155
:101470001F910F91FF90EF90DF90CF900895109201
:1014800046021092450210922302109222020C94FE
:101490007A0A81E080932102609344021092230231
:1014A0001092220208950F93062F21E0409122020C
:1014B00064E272E0809144020E94980A1092230232
:1014C00010922202109221020F91089561E00C9473
:1014D000530AE5E1F2E01382128288EE93E0A0E085
:1014E000B0E084839583A683B78385E391E09183FD
:1014F000808308951092D40281E08093D2021092EA
:10150000D10261E083E10E94CB0F61E082E10E94A1
:10151000CB0FE1E7F0E080818E7F808380818D7F3B
:10152000808388E48093700085E48093740008953C
:101530000F93413208F04BC09091D4029111FCCF2F
:1015400092E09093D4020093D2029FEF90936702AF
:101550001092AC024093AB02362FADEAB2E0FB0131
:101560009E2F931B941770F11092D3029091D30287
:10157000880F892B8093D3028091D102813029F585
:101580001092D1028091D3028093730080917400F5
:1015900083FDF8CF85EC80937400222321F08091A5
:1015A000D4028230D1F3809167028F3F91F0809115
:1015B0006702803281F080916702803371F084E0AD
:1015C0000F91089591919D93CBCF85EEE4CF81E06B
:1015D000F7CF80E0F5CF82E0F3CF83E0F1CF613247
:1015E00098F42091D402243089F460938902282F42
:1015F000ABE8B2E0FC018E2F821B861710F080E072
:10160000089581918D93F7CF81E0089582E0089548
:1016100085ED809374008091740084FDFCCF10925E
:10162000D402089585EC809374001092D40208953A
:101630001F920F920FB60F9211240BB60F922F9399
:101640003F934F935F936F937F938F939F93AF934A
:10165000BF93EF93FF9380917100887F803609F4E8
:101660004EC008F041C0883209F4AAC028F5803184
:1016700009F49EC0C8F4882309F4FBC0883009F43B
:1016800097C0FF91EF91BF91AF919F918F917F9103
:101690006F915F914F913F912F910F900BBE0F90E3
:1016A0000FBE0F901F901895883109F489C08032C1
:1016B00041F78093670215C0803409F49EC048F456
:1016C0008033B9F38833E9F6809367020E94120BE6
:1016D000D8CF803509F485C0883509F496C08834A0
:1016E00081F60E94080BCDCF883909F48CC038F5FB
:1016F000883729F050F4883611F0803711F683E0EE
:101700008093D4021092680257C0883809F47BC0D5
:10171000803919F0803809F0B4CF809168028032A6
:1017200008F071C0E091680281E08E0F809368023A
:1017300080917300F0E0E759FD4F80833DC0803B0E
:1017400039F0E0F4803A09F479C0883A09F099CF89
:1017500084E08093D40210928A0210928902E09170
:10176000CF02F091D00209958091890281110FC0BA
:1017700081E08093890210928B0209C0803C09F4B9
:1017800076C0883C09F473C0883B09F07ACFE091B9
:101790008A0281E08E0F80938A02F0E0E557FD4FC8
:1017A00080818093730090918A028091890229C080
:1017B0008091D3028093730085EC8093740061CF95
:1017C0009091AC028091AB02981758F5E091AC0271
:1017D00081E08E0F8093AC02F0E0E355FD4F8081F5
:1017E000E9CFE091AC0281E08E0F8093AC02809152
:1017F0007300F0E0E355FD4F80839091AC0280913F
:10180000AB029817C8F285E8D8CFE091AC0281E02E
:101810008E0F8093AC0280917300F0E0E355FD4F92
:1018200080838091D20281115CCF81E08093D102CC
:1018300084EA809374001092D40223CF0E94120B8A
:1018400080916802803230F4E0916802F0E0E7595C
:10185000FD4F10826091680270E0E091CD02F0913E
:10186000CE0289E692E00995109268020ACF85ECD3
:10187000E0CF1092670235CFDC01ED91FC91019031
:10188000F081E02D0994FC01118A0895663098F4E6
:1018900070E0660F771F680F791FE42FF0E0EF5BB1
:1018A000FE4F30E8239FC00111242081282B30E017
:1018B000FB01318320830895FC0180E490E0918353
:1018C0008083938382831582148297838683918792
:1018D000808708952F923F924F925F926F927F92EE
:1018E0008F929F92AF92BF92CF92DF92EF92FF9230
:1018F0000F931F93CF93DF93CDB7DEB72C970FB61F
:10190000F894DEBF0FBECDBF9E838D8349835A837B
:101910006B837C832C8720E030E0A90169817A8188
:101920008B819C810E94A31087FF2FC089819A819F
:10193000AB81BC81B05889839A83AB83BC8391E02F
:101940009F83A4E0A887F12CE12C812C912C40E806
:10195000A42E4FE3B42EEC85CE2ED12C402E512C4C
:10196000712C612CEC14FD04A4F4C301B2010E949B
:101970004B119B01AC01C501B4010E94FB114B014D
:101980005C01FFEFEF1AFF0AEDCF1F82B5E0B887C9
:10199000DACFA501940169817A818B819C810E94B3
:1019A000FB1120E030E040E05FE30E9437100E942E
:1019B0001A116B017C01312C212C412C512C32014C
:1019C00043948885E82FF0E0802F90E0B0E0A0E01D
:1019D00088879987AA87BB872E163F068CF1802FB0
:1019E00090E0B0E0A0E088879987AA87BB87C414FD
:1019F000D504E604F70490F1AC85A150AC87688566
:101A000079858A859B850E944B119B01AC01C5019C
:101A1000B4010E94A8104B015C01AC019B016981DB
:101A20007A818B819C810E94FB1120E030E040E0B4
:101A30005FE30E9437100E941A116B017C01D7CF1F
:101A4000A3019201688579858A859B850E94681229
:101A50002B013C019FEF291A390ABECF20E030E06C
:101A600040E85FE3C501B4010E94A31087FF1CC0DA
:101A70008D819E812C960FB6F894DEBF0FBECDBF30
:101A8000DF91CF911F910F91FF90EF90DF90CF905A
:101A9000BF90AF909F908F907F906F905F904F908E
:101AA0003F902F900C945C0CC114D104E104F1041C
:101AB000F1F48FE390E0ED81FE8191878087FF81D3
:101AC000F1115FC083E08983A981A7FD5EC0A630C4
:101AD00054F4EA2FF0E0EE0FFF1F8D819E81E80F96
:101AE000F91F11821082998191509983EDCFF4E012
:101AF000F98324E0A22E402E512C712C612C8C8570
:101B0000882331F011E08A2D9981891BAC858A13D5
:101B100010E0C701B601A30192010E948C121901C5
:101B20004A01462FB980BB2DB150B9830B2F212F0D
:101B30006B2D8D819E810E94460C61017401C11440
:101B4000D104E104F104D9F68A2DB9818B1BEC850F
:101B5000E817A8F69F81992309F4B6CFBA94BA94EE
:101B6000B982063008F0B0CFE02FF0E0EE0FFF1F93
:101B70008D819E81E80FF91F80E490E0918380833E
:101B8000A3CFA2E0A98303E0EFCF2C960FB6F89481
:101B9000DEBF0FBECDBFDF91CF911F910F91FF90A0
:101BA000EF90DF90CF90BF90AF909F908F907F90FD
:101BB0006F905F904F903F902F9008950F93CF9329
:101BC000DF93EC01022FCB01BA010E944B11AB0154
:101BD000BC0120E0CE010E946A0CDF91CF910F91F1
:101BE00008950C94DE0D242FAB01770F660B770B55
:101BF0000C94DE0D0F931F93CF93DF93EC01688954
:101C000085E192E00E94490A60E085E192E00E944D
:101C1000E3098E01005F1F4F69917991772785E174
:101C200092E00E943C0CFE013297618170E085E1F8
:101C300092E00E943C0CC017D10771F785E192E059
:101C4000DF91CF911F910F910C94660ACF93C62F0D
:101C5000FC01608985E192E00E94490A6C2FC03145
:101C600008F06FE0606E85E192E00E94E30985E193
:101C700092E0CF910C94660ACF93C62FFC01608945
:101C800085E192E00E94490AC43008F0C0E06C2F60
:101C900070E0660F771F616885E192E00E94E309BA
:101CA00085E192E0CF910C94660ACF93DF93EC012B
:101CB000688B85E192E00E943F0A688985E192E0A5
:101CC0000E94490A61E285E192E00E94E30985E110
:101CD00092E00E94660A60E0CE010E943C0E6FE036
:101CE000CE01DF91CF910C94260E1F920F920FB66A
:101CF0000F9211242F933F938F939F93AF93BF9392
:101D00008091D6029091D702A091D802B091D902C9
:101D10003091D50223E0230F2D3758F50196A11DF0
:101D2000B11D2093D5028093D6029093D702A09341
:101D3000D802B093D9028091DA029091DB02A0918F
:101D4000DC02B091DD020196A11DB11D8093DA0283
:101D50009093DB02A093DC02B093DD02BF91AF91C0
:101D60009F918F913F912F910F900FBE0F901F90D9
:101D7000189526E8230F0296A11DB11DD2CF2FB7CB
:101D8000F8946091D6027091D7028091D802909118
:101D9000D9022FBF08953FB7F8948091DA0290914D
:101DA000DB02A091DC02B091DD0222B706B600FE94
:101DB00005C02F3F19F00196A11DB11D3FBFBA2FDD
:101DC000A92F982F8827BC01CD01620F711D811D9D
:101DD000911D42E0660F771F881F991F4A95D1F722
:101DE00008958F929F92AF92BF92CF92DF92EF921F
:101DF000FF926B017C010E94CB0E4B015C01C11470
:101E0000D104E104F104E9F00E9435100E94CB0EE8
:101E1000681979098A099B09683E73408105910513
:101E200070F321E0C21AD108E108F10888EE880EAB
:101E300083E0981EA11CB11CC114D104E104F1047B
:101E400029F7FF90EF90DF90CF90BF90AF909F90D9
:101E50008F900895789483B7806483BF83B7886038
:101E600083BF83B7846083BF87B7816087BF1EBC91
:101E70008EB582608EBD8EB581608EBD8FB581605E
:101E80008FBD85B5846085BD85B5806485BDEAE874
:101E9000F0E0808182608083808181608083EBE8D4
:101EA000F0E0808181608083329A319A309A379A4B
:101EB0001AB8089581508C3048F5E82FF0E0ED59BC
:101EC000F04F0C94AE127D0F7D0F860F6F0F730FC6
:101ED000760F790F860F860F810F870F8B0F8FB5C7
:101EE0008F778FBD08958FB58F7DFBCF8FB5877F9F
:101EF000F8CF85B58F7D85BD089583B78F7D83BF6E
:101F0000089580918B008F7780938B000895809146
:101F10008B008F7DF9CF80918B00877FF5CFCF939A
:101F2000DF9390E0FC01EF53FF4F24918A509F4FC5
:101F3000FC0184918823C9F090E0880F991FFC016F
:101F4000E55BFE4FA591B491FC01E55CFE4FC591A8
:101F5000D49161110DC09FB7F8948C912095822384
:101F60008C938881282328839FBFDF91CF91089588
:101F7000623051F49FB7F8943C91822F809583236F
:101F80008C93E8812E2BEFCF8FB7F894EC912E2B0A
:101F90002C938FBFEACF1F93CF93DF93282F30E08E
:101FA000F901E457FF4F8491F901EF53FF4FD491AA
:101FB000F901EA50FF4FC491CC23A9F0162F8111EB
:101FC0000E945A0FEC2FF0E0EE0FFF1FE55CFE4F72
:101FD000A591B4918FB7F894EC91111108C0D095E8
:101FE000DE23DC938FBFDF91CF911F910895DE2B0D
:101FF000F8CFCF93DF93282F30E0F901E457FF4F5C
:102000008491F901EF53FF4FD491F901EA50FF4F4A
:10201000C491CC23A1F081110E945A0FEC2FF0E063
:10202000EE0FFF1FE55DFE4FA591B491EC91ED23FE
:1020300081E090E009F480E0DF91CF91089580E0A5
:1020400090E0FACF982F862F089508950E942A0FC6
:102050000E9425100E94CE02C0E0D0E00E94F10450
:102060002097E1F30E940000F9CF08955058BB2754
:10207000AA270E944E100C94C1110E94B31138F08F
:102080000E94BA1120F039F49F3F19F426F40C9401
:10209000B0110EF4E095E7FB0C94AA11E92F0E9411
:1020A000D21158F3BA17620773078407950720F017
:1020B00079F4A6F50C94F4110EF4E0950B2EBA2FDA
:1020C000A02D0B01B90190010C01CA01A00111243E
:1020D000FF27591B99F0593F50F4503E68F11A16EA
:1020E000F040A22F232F342F4427585FF3CF46957B
:1020F00037952795A795F0405395C9F77EF41F169D
:10210000BA0B620B730B840BBAF09150A1F0FF0F66
:10211000BB1F661F771F881FC2F70EC0BA0F621F52
:10212000731F841F48F4879577956795B795F79542
:102130009E3F08F0B0CF9395880F08F09927EE0FD7
:102140009795879508950E94861108F481E0089577
:102150000E94BC100C94C1110E94BA1158F00E9448
:10216000B31140F029F45F3F29F00C94AA115111EA
:102170000C94F5110C94B0110E94D21168F39923BC
:10218000B1F3552391F3951B550BBB27AA27621773
:102190007307840738F09F5F5F4F220F331F441F80
:1021A000AA1FA9F335D00E2E3AF0E0E832D09150B4
:1021B0005040E695001CCAF72BD0FE2F29D0660FA1
:1021C000771F881FBB1F261737074807AB07B0E8E4
:1021D00009F0BB0B802DBF01FF2793585F4F3AF0EA
:1021E0009E3F510578F00C94AA110C94F5115F3FB5
:1021F000E4F3983ED4F3869577956795B795F79570
:102200009F5FC9F7880F911D9695879597F9089557
:10221000E1E0660F771F881FBB1F621773078407F3
:10222000BA0720F0621B730B840BBA0BEE1F88F702
:10223000E09508950E94DA1188F09F5798F0B92F21
:102240009927B751B0F0E1F0660F771F881F991FEB
:102250001AF0BA95C9F714C0B13091F00E94F41188
:10226000B1E008950C94F411672F782F8827B85F98
:1022700039F0B93FCCF3869577956795B395D9F743
:102280003EF490958095709561957F4F8F4F9F4F4D
:102290000895E89409C097FB3EF490958095709559
:1022A00061957F4F8F4F9F4F9923A9F0F92F96E9A2
:1022B000BB279395F695879577956795B795F11117
:1022C000F8CFFAF4BB0F11F460FF1BC06F5F7F4FB4
:1022D0008F4F9F4F16C0882311F096E911C07723C6
:1022E00021F09EE8872F762F05C0662371F096E8CF
:1022F000862F70E060E02AF09A95660F771F881F9E
:10230000DAF7880F9695879597F90895990F000841
:10231000550FAA0BE0E8FEEF16161706E807F907B7
:10232000C0F012161306E407F50798F0621B730B52
:10233000840B950B39F40A2661F0232B242B252BD3
:1023400021F408950A2609F4A140A6958FEF811D76
:10235000811D089597F99F6780E870E060E0089517
:102360009FEF80EC089500240A94161617061806AD
:102370000906089500240A94121613061406050689
:102380000895092E0394000C11F4882352F0BB0F1A
:1023900040F4BF2B11F460FF04C06F5F7F4F8F4F7D
:1023A0009F4F089557FD9058440F551F59F05F3FB8
:1023B00071F04795880F97FB991F61F09F3F79F067
:1023C00087950895121613061406551FF2CF4695E9
:1023D000F1DF08C0161617061806991FF1CF86956B
:1023E0007105610508940895E894BB27662777274F
:1023F000CB0197F908950E940E120C94C1110E940E
:10240000B31138F00E94BA1120F0952311F00C940A
:10241000AA110C94B01111240C94F5110E94D21140
:1024200070F3959FC1F3950F50E0551F629FF00127
:10243000729FBB27F00DB11D639FAA27F00DB11D40
:10244000AA1F649F6627B00DA11D661F829F2227C9
:10245000B00DA11D621F739FB00DA11D621F839F50
:10246000A00D611D221F749F3327A00D611D231F26
:10247000849F600D211D822F762F6A2F11249F5774
:1024800050409AF0F1F088234AF0EE0FFF1FBB1F77
:10249000661F771F881F91505040A9F79E3F510536
:1024A00080F00C94AA110C94F5115F3FE4F3983E70
:1024B000D4F3869577956795B795F795E7959F5FE0
:1024C000C1F7FE2B880F911D9695879597F9089572
:1024D000DB018F939F930E94C612BF91AF91A29F81
:1024E000800D911DA39F900DB29F900D1124089512
:1024F00097FB072E16F4009407D077FD09D00E94B1
:10250000D11207FC05D03EF4909581959F4F089518
:10251000709561957F4F0895A1E21A2EAA1BBB1BEF
:10252000FD010DC0AA1FBB1FEE1FFF1FA217B3079F
:10253000E407F50720F0A21BB30BE40BF50B661FB5
:10254000771F881F991F1A9469F760957095809579
:1025500090959B01AC01BD01CF010895EE0FFF1FC7
:102560000024001C0BBE0790F691E02D0994A29F59
:10257000B001B39FC001A39F700D811D1124911D57
:10258000B29F700D811D1124911D08950E94B712F4
:10259000A59F900DB49F900DA49F800D911D1124B7
:1025A0000895AA1BBB1B51E107C0AA1FBB1FA6179A
:1025B000B70710F0A61BB70B881F991F5A95A9F7EC
:0E25C00080959095BC01CD010895F894FFCF51
:1025CE000C0D020304050607083141324233433431
:1025DE00443545364637471C001D001E001F00209F
:1025EE0000210022002300000000009806940691AE
:1025FE000600000000E309120AB909C009D309E276
:10260E00093F065B4F666D7D077F6F777C395E797C
:02261E00710049
:00000001FF
